:020000040800F2
:10000000300D00203502000869550008C54A000877
:1000100071520008CD270008A16C00080000000004
:1000200000000000000000000000000069660008F9
:10003000152900080000000055630008F567000856
:100040004F0200084F0200084F0200084F0200084C
:100050004F0200084F0200084F0200084F0200083C
:100060004F0200084F0200084F0200084F0200082C
:100070004F0200084F0200084F0200084F0200081C
:100080004F0200084F0200084F0200084F0200080C
:100090004F0200084F0200084F0200084F020008FC
:1000A0004F0200084F0200084F0200084F020008EC
:1000B000596800084F0200084F0200084F0200086C
:1000C0004F0200084F0200084F0200084F020008CC
:1000D0004F0200084D6C0008596C00084F020008E0
:1000E0004F0200084F0200084F02000800F002F81B
:1000F00000F090F80AA090E8000C82448344AAF132
:100100000107DA4501D100F085F8AFF2090EBAE82F
:100110000F0013F0010F18BFFB1A43F0010318473B
:10012000BC990000DC990000103A24BF78C878C15F
:10013000FAD8520724BF30C830C144BF04680C60ED
:10014000704700000023002400250026103A28BF35
:1001500078C1FBD8520728BF30C148BF0B60704739
:100160006E2900F01B82702900F05D83662907F07C
:10017000EC83652907F0E983672907F0E6836129A5
:1001800007F0E58303681B0A28BF41F08001692955
:1001900000F0C881642900F0C581752900F0C28192
:1001A0006F2900F0EA82782900F02983E92900F01C
:1001B0008582E42900F08282F52900F07F82EF2910
:1001C00000F0E782F82900F028830368DB0928BFE4
:1001D00041F08001632901F05D80732901F06280A4
:1001E000E32901F06D80F32901F07280002070474F
:1001F0001FB501F0C3F804000020002106F032FF13
:10020000401C60600020002106F016FFE0601FBD6A
:1002100010B510BD01F084F81146FFF7E9FF06F0B4
:10022000EDFD01F061F903B4FFF7F2FF03BC01F04B
:1002300065F900000948804709480047FEE7FEE7E6
:10024000FEE7FEE7FEE7FEE7FEE7FEE7FEE7FEE786
:1002500004480549054A064B7047000057680008E6
:10026000ED00000830070020300D0020300900208C
:1002700030090020B2F120030AD5C2F1200320FA90
:1002800002F001FA03F321FA02F140EA0300704799
:1002900021FA03F04FF00001704700001CB50C4636
:1002A000064B7B4469460090204600F090F90446D6
:1002B0000020694600F09EF920461CBD4F03000057
:1002C00010B5431C02E010F8011B71B18107FAD18F
:1002D0004FF0013202C88C1A8C4314EAC211F9D0D3
:1002E000C01A0A0603D0C01E10BDC01A10BD0A04F1
:1002F00001D0801E10BD0902FCD0401E10BD032A93
:1003000040F2308010F0030C00F0158011F8013B32
:10031000BCF1020F624498BF11F801CB00F8013B19
:1003200038BF11F8013BA2F1040298BF00F801CBDD
:1003300038BF00F8013B11F0030300F04383083A93
:10034000C0F0088051F8043B083A51F804CBA0E80B
:100350000810F5E7121D5CBF51F8043B40F8043B60
:10036000AFF30080D20724BF11F8013B11F801CB95
:1003700048BF11F8012B24BF00F8013B00F801CB66
:1003800048BF00F8012B70474FF0000200B513463C
:1003900094469646203922BFA0E80C50A0E80C50A5
:1003A000B1F12001BFF4F7AF090728BFA0E80C5056
:1003B00048BF0CC05DF804EB890028BF40F8042B4F
:1003C00008BF704748BF20F8022B11F0804F18BFBC
:1003D00000F8012B704700004FF0013C50F8042B4F
:1003E00051F8043B9A4221D1A2EB0C03934313EA48
:1003F000CC1317D150F8042B51F8043B9A4215D175
:10040000A2EB0C03934313EACC130BD150F8042B4B
:1004100051F8043B9A4209D1A2EB0C03934313EA2F
:10042000CC13DBD04FF00000704700BFD01A01BAE8
:10043000B1FA81F101F0180122FA01F0CB40C1F1CB
:100440002001DBB2C0B2C01A2CFA01F3D11A9143D9
:1004500011EAC311E6D1704770477047704770B515
:10046000044685690068C10601D5302600E02026D3
:10047000C00707D070BDD4E9012130469047206AFB
:10048000401C20626D1EF6D570BD70B504468569AE
:100490000078C00707D170BDD4E901212020904722
:1004A000206A401C20626D1EF6D570BD09684A05A1
:1004B00001D540B27047C905FCD500B27047096844
:1004C0004A0501D5C0B27047C905FCD580B2704756
:1004D00070B50C460546012A05D02878800600D55F
:1004E000EA69002302E0012305E05B1C934202D28B
:1004F000E05C0028F9D1A869E618C01AA861286A4A
:10050000184428622846FFF7AAFF04E0D5E9012134
:1005100014F8010B9047B442F8D32846FFF7B5FF13
:1005200070BD00002DE9F0410646002410687529D1
:10053000314616A510D0FFF7B9FF002802DA404275
:1005400013A507E031688A0701D512A502E0490723
:1005500004D511A5012401E0FFF7B1FF00210A2213
:1005600006F1240709E0B0FBF2FCB0FBF2F302FB5A
:100570001C00303078541846491C0028F3D123461B
:100580002A463046BDE8F04100F093BA0000000072
:100590002D0000002B000000200000001168026800
:1005A000006A530501D508700AE0D30501D508801B
:1005B00006E0130603D5C217C1E9000200E0086097
:1005C0000120704701694A1C02610878704700B534
:1005D0008FB0CDE901310021059105497944CDE97C
:1005E00003101146684600F029F90FB000BD000065
:1005F000E5FFFFFF0A6802F8010B0A607047000080
:100600002DE9FF5F15468A460446DFF8AC80F844C2
:100610000027D8E900103E46CDE9001010E03AF876
:1006200016106A4602A800F057FE411C07D0217838
:10063000890603D5E269391891420DD80744761C22
:100640002078800602D5E069B84205DDAE42E6DBDF
:100650003AF816000028E2D1A069C01BA06120462C
:10066000FFF7FDFED8E90010CDE90010002017E0EB
:100670003AF818106A4602A800F02EFEB0F1FF3FCB
:1006800081460BD000250DF1080B05E0D4E90121CE
:100690001BF8050090476D1C4D45F7D308F101008C
:1006A000B0428046E4DB206A384420622046FFF7EF
:1006B000ECFEBDE8FF9F0000CE9300002DE9F04165
:1006C0008046D21D22F007020025D2E90002F5295A
:1006D00015A614D0011E72F1000106DA0023D0EB3A
:1006E000030063EB020211A608E0D8F800108B07A4
:1006F00001D50FA602E0490701D50EA60125114636
:10070000002408F1240704E000F08EF930323A5555
:10071000641C50EA0102F7D12B463246214640467E
:10072000BDE8F04100F0C5B9000000002D00000058
:100730002B0000002000000030B4002100F1240450
:1007400008E002F00705D208303542EA4372DB08C0
:100750006554491C52EA0305F3D10468002310A232
:10076000250707D5A40600D421B1C46901230DA231
:10077000641EC46130BC00F09CB910B5044621462B
:100780001068FFF79CFE02462046BDE8104000239B
:10079000D2E7D21D22F00701D1E90023CCE7000007
:1007A0000000000030000000F0B40D46018809058B
:1007B00002D5214C7C4402E01F4C7C440E340021C5
:1007C00000F1240608E002F00F071209E75D42EA93
:1007D00003721B097754491C52EA0307F3D10278CC
:1007E0000023120704D5702D06D009B1022311345D
:1007F0002246F0BC00F05DB901231034F8E770B573
:1008000004460D4621461068FFF759FE0246294668
:100810002046BDE870400023C6E7D21D22F0070342
:10082000D3E90023C0E70368126843F020030360A4
:100830000823C3610023B7E7309200002DE9F05F81
:10084000894604464FF0000ADFF874B1FB44C0F853
:1008500020A02046E1688847002874D0252806D0CB
:10086000D4E901219047206A401C2062F1E700266C
:100870005F462046E16888472028054607DB312D82
:1008800005D2781910F8200C08B10643F1E7B0073B
:1008900001D526F00406C4F81CA00027C4F818A04F
:1008A0002A2D09D0284606F095FA38B304EB8708BC
:1008B000303DC8F8185019E059F8041B204604EBE5
:1008C00087029161E1688847012F054618D1E069E8
:1008D000002820DA26F020061DE0D8F8180000EBEA
:1008E000800005EB40003038C8F818002046E16869
:1008F0008847054606F06EFA0028EED1012F0AD08F
:100900002E2D08D12046E16888477F1C0546022F1E
:1009100046F02006C4DBA069002803DA404246F016
:100920000106A061F00701D026F010066C2D0BD057
:10093000682D09D04C2D39D06A2D35D0742D35D085
:100940007A2D33D016E038E0E1682F4620468847FC
:10095000B842054609D16C2F26D04FF48060E1687B
:10096000064320468847054604E06C2F1AD04FF412
:10097000807006430DB3A5F14100192802D8203537
:1009800046F400664A462946204626604E46FFF752
:10099000E7FB80B101280BD0F61D26F0070000F11F
:1009A000080956E74020E4E78020D8E70020D6E792
:1009B00006F104094DE7284652E7206ABDE8F09F9A
:1009C000C091000010B5203AC0F00B80B1E818507B
:1009D000203AA0E81850B1E81850A0E81850BFF429
:1009E000F5AF5FEA027C24BFB1E81850A0E81850C8
:1009F00044BF18C918C0BDE810405FEA827C24BF1C
:100A000051F8043B40F8043B08BF7047D20728BFA9
:100A100031F8023B48BF11F8012B28BF20F8023BF8
:100A200048BF00F8012B704730B5B0F10A024FEA19
:100A3000900E71F100034EEA817EB0EB0E0061EB87
:100A400091014FEA101E4EEA017E10EB0E0041EBC1
:100A500011114FEA102E4EEA016E10EB0E0041EB21
:100A600011214FEA104E4EEA014E10EB0E0041EB01
:100A70001141401841F100014FEAD00040EA4170B5
:100A80004FEAD10110EB80054FEA810444EA9074EB
:100A900044EB01046D1944EB0404521BA3414FF0D5
:100AA000000348BF0A3200D530BD401C41F10001AF
:100AB00030BD2DE9F0470D4699469246044600F1B7
:100AC00024080168880604D5E06921F0100121603E
:100AD00000E00120A84201DD471B00E00027A169DA
:100AE0007A1902EB0900081AA0612078C00602D426
:100AF0002046FFF7B4FC002608E0D4E901211AF8EB
:100B000006009047206A401C761C20624E45F4DBAC
:100B10002078C0060AD52046FFF7A1FC06E0D4E9FC
:100B2000012130209047206A401C2062381EA7F126
:100B30000107F4DC07E0D4E9012118F8050090472B
:100B4000206A401C2062281EA5F10105F3DC204626
:100B5000FFF79BFC2078000602D50220BDE8F08755
:100B60000120FBE770472DE9FF4F0C461E464FF072
:100B7000FF378BB0D2E90001DDF860800A908A4629
:100B8000C1F30A5505B93D46002108464FF0000063
:100B9000BAF1000F00F4400005DA00EB80004FF4DA
:100BA000400101EA50004FEA9059B9F1010F00DD10
:100BB000B9460A9850EA4A000ED044F61050A5F201
:100BC000FF3545432F14B8F1000F1ED07542291E82
:100BD0001EDDC9F100021CE0B8F1010F4FF000006A
:100BE00001D0302103E0F24305E02154401CB04223
:100BF000FBDB30460022002121540B99C1F808800C
:100C0000C1E900200FB0BDE8F08FBD1B6D1CDEE711
:100C10004A4600DA694206A800F0F4FB06AB93E806
:100C2000070003AB83E8070050460A9900F06DFC0B
:100C30008DE80700A0F500501F3800900398002DA4
:100C40000ADD42F21F014A460844002303A903902B
:100C5000684600F0D6FE09E0A0F500504A461F386D
:100C6000002303A90390684600F0E0FE8DE807002A
:100C70000004000C03D04FF0FF30410800E01046A4
:100C8000B8F1000F03D00022009215461EE0751E39
:100C900005D4FFF7C9FE303262556D1EF9D5B34653
:100CA0000122084302D000227F1C04E02078302873
:100CB00001D100227F1E002A099784D01DE0112D4A
:100CC00007DAFFF7B1FE303262556D1C50EA0102BF
:100CD000F5D1084302D00098C8B10EE00021681E8B
:100CE00005E0235C625C63542254401E491C81422F
:100CF000F7DBAB46A81B401E0990002004F80B0050
:100D00000B98099AC0F80880C0E9002B7AE71126F1
:100D10004FF0000857E72DE9F04F88460446D21DF2
:100D200022F0070191B0D1E90001CDE90A0106F0F6
:100D30002DF802460B98C00F01D02D2007E0206847
:100D4000810701D52B2002E0202101EAC000032AFF
:100D5000099001D0072A05DB03464146204600F0F2
:100D600011FB0BE12078800601D5E06900E0062048
:100D7000B8F1650F814606D0B8F1660F18D0B8F10A
:100D8000670F70D131E00020B9F1110F009001DB45
:100D9000112301E009F101030AAA01A90CA8FFF738
:100DA000E2FEDDE90C70002609F10105834647E00B
:100DB00001204B4600904FF000470AAA01A90CA859
:100DC000FFF7D1FEDDE90DB00C995D46002610B9A4
:100DD00009F101000D18B9EB050003D4C0F1FF368D
:100DE00009F10105A5EB09002BE0B9F1010F01DACA
:100DF0004FF001090020B9F1110F0090484601DDC4
:100E0000112300E003460AAA01A90CA8FFF7ABFED4
:100E1000DDE90C704D4600268346207800070AD491
:100E2000AB4500DA5D4601A8012D04DD411911F83A
:100E3000011C302907D04F4502DA17F1040F04DAFC
:100E4000012082460FE06D1EEEE7002F02DCED1B55
:100E50003E4403E0781CA84200DD7D1CB81B00F175
:100E6000010A4FF000472078000703D4AA4501DBB0
:100E70004FF0FF3A0021B7F1004F0DF143088DF814
:100E8000431024D002202B23002F01DA7F422D2390
:100E90000A21021EA0F1010000DC5FB197FBF1FC0A
:100EA00097FBF1F201FB1C7C17460CF1300C08F8A3
:100EB00001CDEEE7A8F1010003702188090501D5F5
:100EC000452100E06521A0F1010800F8011C099806
:100ED0000FA9A1EB0807FF1D00B10120411901EB8B
:100EE000EA70A1693844081A401EA0612078C00643
:100EF00002D42046FFF7B3FA099828B1D4E90121BA
:100F00009047206A401C20622078C00622D52046E7
:100F1000FFF7A5FA1EE0002E04DBB34502DD01A8B1
:100F2000805D00E03020D4E901219047206A401C18
:100F30002062761CAAF101005FEA000A0AD100F0E3
:100F40001DFAC0680168405CD4E901219047206A1D
:100F5000401C2062281EA5F10105DCDC07E0D4E975
:100F6000012118F8010B9047206A401C2062381EAE
:100F7000A7F10107F3DC2046FFF787FA032011B041
:100F800041E600002DE9F04F04460D46D21D22F047
:100F9000070089B0D0E900974846394605F0F6FECB
:100FA0000246F80F01D02D2307E02068810701D504
:100FB0002B2302E0202101EAC0038DF820300BB181
:100FC000012000E00020032A824601D0072A04DB2A
:100FD0002946204600F0D6F93FE12078800601D46A
:100FE0000D2500E0E569C7F30A560D2D49DA002109
:100FF0004FEA175B08464FF00000002F00F4400056
:1010000007DA00EB80004FF4400100EBD07001EAFA
:1010100060008115012901DD4FF0FF3100224FEA08
:10102000850CBCF1180F06D31346ACF118004FF035
:101030008052C24003E04FF4801323FA0CF30CF10A
:101040000C0CBCF1200F04D3ACF1200C09FA0CF00D
:1010500001E007FA0CF000294FF0004801DD18B953
:101060000FE00ED140450CD319EB02095F4121B9C5
:10107000404502D19F4329EA0209BBEB175F00D02C
:10108000761C2088000502D57B48784402E07A4827
:101090007844193808AA302302F80A30037C0AF190
:1010A0000101002E0AF1020A53546A4602DC4FF095
:1010B000300101E04FF031014FF001088DF80010D0
:1010C00002D0A6F2FF3603E059EA470100D06B4E8A
:1010D000002D02DC2178090704D54FF002082E21EB
:1010E0008DF80110C44600210BE0C7F303433F0114
:1010F000C35C491C6D1E02F80830052908F101087F
:1011000001DA002DF1DC00210CE000EB1973491C21
:101110001B786D1E082902F808304FEA091908F1FA
:10112000010801DA002DF0DC21688B0602D516E0FB
:10113000A8F10108E04505DD02EB080313F8013CC6
:10114000302BF5D0B8F1000F09DD02EB080313F8DE
:10115000013C2E2B03D1090701D4A8F10108002D71
:1011600005DD3E2102F808106D1E08F10108407CE3
:10117000002E02F8080008F1010804DA2D2076425A
:1011800002F8080002E02B2002F808000A214FF4C0
:101190007A70864208F101080BDB96FBF0F33033DE
:1011A00002F8083096FBF0F308F1010800FB136623
:1011B00001E0642E0CDB642096FBF0F3303302F880
:1011C000083096FBF0F308F1010800FB136601E01C
:1011D0000A2E06DB96FBF1F0303002F8080008F129
:1011E000010896FBF1F001FB1060303002F80800B6
:1011F000A16908F1010808EB050202EB0A00081AD0
:10120000A0612078C00602D42046FFF728F9216AA1
:1012100008AE01EB0A00206204E0D4E9012116F8CF
:10122000010B9047BAF1010AF7D22078C00602D527
:101230002046FFF714F96E4609E016F8010B3E2828
:101240000FD0D4E901219047206A401C2062B8F1F8
:101250000108F2D22046FFF718F909B00320BDE8D3
:10126000F08F206A2844206203E0D4E90121302075
:1012700090476D1EEBD3F8E7A689000002FCFFFF44
:1012800010B5436913B1AFF3008001E0FFF720F917
:10129000012010BD127800F124010A7000224A706A
:1012A0000122EDE711684FF0FF32E9E710B543691D
:1012B00013B1AFF3008001E0FFF7A2F9012010BDE8
:1012C000128800F1240182840022C2840122EDE709
:1012D00011684FF0FF32E9E770B516460C46054637
:1012E00000F044F8036893F80101012806D0FF2CB0
:1012F0000FD8185D68B101202C7070BDD3F80701BC
:101300003246214603F2071303442846BDE87040E5
:1013100018474FF0FF3070BD00487047D0060020DE
:101320007546FFF7F9FFAE4605006946534620F0C3
:101330000700854618B020B5FEF78AFFBDE82040BB
:101340004FF000064FF000074FF000084FF0000B81
:1013500021F00701AC46ACE8C009ACE8C009ACE834
:10136000C009ACE8C0098D467047000010B500F018
:1013700005F8001D10BD00BFED5C0000004870477F
:10138000F00600202DE9F0411F46044603260168BF
:10139000072A01F4006004DB08B116A505E016A5D4
:1013A00003E008B115A500E015A521F010002060AC
:1013B000A069C01EA0610FB1401EA0612046FFF7CA
:1013C0004EF84FB1D4E9012138469047206A401CBD
:1013D0002062C01C206206E0206AFAE7D4E90121FD
:1013E00015F8010B9047761EF8D22046FFF74DF80E
:1013F000BDE8F0814E414E006E616E00494E4600E0
:10140000696E66002DE9F047814616468AB0354878
:1014100078440DC88DE80D0032487844801C03AC38
:101420000DC884E80D0041F69B300844372190FB3D
:10143000F1F290FBF1F5A5F1800501FB12041B3CD4
:1014400002D56442012000E00020DFF898A0804629
:101450000027FA44AAF1BE0A0EE0E0070AD032469D
:10146000684607EB470101230AEB810100F0DEFA31
:101470008DE8070064107F1C002CEED1194F7F44CB
:10148000AE3F19E0E80715D007EB04100DF1180A7C
:1014900090E80E008AE80E00C068F04201D1981969
:1014A00008903246012306A903A800F0BFFA03AB57
:1014B00083E807006D10641C002DE3D14FF0010399
:1014C00032466946B8F1000F03A802D000F099FA3D
:1014D00001E000F0ABFAC9E90001C9F808200AB040
:1014E000BDE8F087B086000010B50446AFF3008079
:1014F0002046BDE81040FEF796BE000001491820C6
:10150000ABBEFEE72600020070475FEA400C08BF52
:1015100091F0000F4FEA8C234FEAC12243EA515168
:101520004FEA1C5018BF00F5F0404FEA300018BFDA
:1015300041F000415FEA6C5C00F02980BCF1FF3FA4
:1015400008BF40F080407047130C06BF12044FF0F4
:10155000100C4FF0000C130E04BF12020CF1080C1B
:10156000130F04BF12010CF1040C930F04BF92007F
:101570000CF1020CD30F04BF52000CF1010C114608
:101580004FF00002A0F11F00A0EB0C00704711F01B
:10159000004F08BF704731F000413FF4D5AF0B0C4E
:1015A00006BF09044FF0100C4FF0000C0B0E04BFE7
:1015B00009020CF1080C0B0F04BF09010CF1040C1B
:1015C0008B0F04BF89000CF1020CCB0F04BF490044
:1015D0000CF1010CCCF12003A0EB0C0022FA03F378
:1015E00002FA0CF241EA030100F10100704720F019
:1015F0007F4C80EA030023F07F47ACEB070303F541
:101600007C5300F0004003F1FF032DE980494FEACD
:10161000154B09B44FEA144325EA0B4E24EA03485C
:101620000FF2042606EB132749083E785FEA3202E0
:1016300003FB0667C7F5000707FB06F64FEA5437BA
:101640004FEAD64606F1020607FB066CCCF1005CB9
:101650004FEA1C472CEA074C07FB06F40CFB06F587
:1016600004EB15464FEA961634BF00204FF00040B9
:101670004FEAD13706FB07FC4FEA1C4C0CFB0BF77B
:10168000D21B03FB0CF761EB07010CFB0EF7B0EB71
:10169000074072EB17420CFB08F734BFA2EB07427E
:1016A000B2EB074261EB17414FEA0C444FEA910756
:1016B00006FB07FC4FEA1C4C0CFB0BF7B0EBC740DA
:1016C00072EB573203FB0CF734BFA2EBC742B2EB0D
:1016D000C74261EB57310CFB0EF7B0EBC70072EB62
:1016E00057720CFB08F734BFA2EBC702B2EBC7027C
:1016F00061EB5771039F4FEA816141EA921104EB5C
:10170000CC044FEAD1374FEA826206FB07FC42EA7B
:1017100090124FEA80604FEA1C4C0CFB0BF7D21B77
:1017200003FB0CF761EB07010CFB0EF7B0EB074076
:1017300072EB17420CFB08F734BFA2EB0742B2EB87
:10174000074261EB17414FEA8C554FEA910704EBD2
:101750009C2406FB07FC4FEA1C4C0CFB0BF7B0EB80
:10176000C74072EB573203FB0CF734BFA2EBC74202
:10177000B2EBC74261EB57310CFB0EF7B0EBC70081
:1017800072EB57720CFB08F734BFA2EBC702B2EB47
:10179000C70261EB577115EB4C254FEA816141EAB5
:1017A00092114FEA82624FEAD13742EA901206FB69
:1017B00007FC44F100044FEA80604FEA1C4C0CFB2C
:1017C0000BF7D21B03FB0CF761EB07010CFB0EF7C9
:1017D000B0EB074072EB17420CFB08F734BFA2EBEB
:1017E0000742B2EB074261EB174115EB1C154FEABC
:1017F000813141EA92414FEA823242EA90424FEA15
:1018000080304FEA0C7644F1000448EA03434EEA84
:101810000B484FF0000EB2EB080C71EB030724BF2E
:10182000624639464EEB0E0E4FF0000B0018524147
:1018300049414BEB0B0BB2EB080C71EB03077BF14F
:10184000000B24BF624639464EEB0E0E4FF0000BE4
:101850000018524149414BEB0B0BB2EB080C71EBFA
:1018600003077BF1000B24BF624639464EEB0E0E98
:1018700051EA020718BF46F0010616EB0E7655F145
:10188000000254F1000103D5BDE88901BDE80088DC
:10189000BDE88901BDE80048B619524141EB01019C
:1018A000A3F10103704780807F7E7D7C7B7A79780D
:1018B000777676757473727171706F6E6E6D6C6C15
:1018C0006B6A6A69686867666665646463636261B7
:1018D0006160605F5F5E5E5D5D5C5C5B5B5A5A5938
:1018E00059585857575656555555545453535252A4
:1018F0005251515050504F4F4F4E4E4D4D4D4C4CFC
:101900004C4B4B4B4A4A4A49494948484847474744
:101910004746464645454544444444434343434281
:10192000424242414141002B9C4630D477002BD0AB
:101930001CB54FEA370703B44FF010004FF0100109
:10194000BAF1000F06D0BCF1000FDCBF40F0080078
:1019500040F008014FF000000FBCBDE810400BF153
:10196000010BBBF1010F08BF5FEA170722BF12F19D
:10197000010211F101014FF0004143F1000300F0B9
:10198000004043EA00007047F9D35708D0E746EA21
:10199000064613F1400F4FEA16461FDD13F1200FE4
:1019A000DFBF16430A46002120335B42BED0C3F19D
:1019B000200746EA064602FA07F74FEA164646EAC5
:1019C0000706C3F1200722FA03F201FA07F721FA0A
:1019D00003F14FF0000342EA0702A7E746EA0206D6
:1019E00046EA06464FEA164646EA0106BCBF46EA04
:1019F0000646360C4FF000034FF000024FF0000196
:101A000094E72DE9804C9A46934670B491E83800EB
:101A100007C831EA400C48BF34EA430C03D5FFF74E
:101A2000E6FDFFF780FFF0BCBDE8008C2DE9804C9F
:101A30009A46934670B491E8380007C810F0804F7A
:101A400008BF13F0804F03D100F005F8FFF76BFFDC
:101A5000F0BCBDE8008C20F07F4780EA030023F053
:101A60007F4C07EB0C03A3F57C5300F00040A3F17F
:101A7000FE0392F0000F00F0B38095F0000F00F02D
:101A800077802DE901494FEA11404FEA144621EAD7
:101A9000004800FB06FC24EA064708FB06F607FBA5
:101AA00008F800FB07F718EB06484CEB164C4FEA1A
:101AB000124B18EB07484FEA15464CEB174022EA49
:101AC0000B4E0BFB06FC25EA06470EFB06F607FB52
:101AD0000EFE0BFB07F71EEB064E4CEB164C4FF0C1
:101AE00000061EEB074E4CEB174B18EB0B0840F1B2
:101AF000000018EB0E0B58EB000840F100008F1AA5
:101B00004FF000013CBFC943661B14BFB5EB040C8A
:101B100000213CBFC943F61B4FEA17444EEA8E0E24
:101B200027EA04454FEA1C4704FB07622CEA074CEE
:101B300005FB07F70CFB05F604FB0CFC16EB074650
:101B400042EB174216EB0C4642EB1C421BEB06061F
:101B500058EB0202414146EA9E0601D5BDE80189E3
:101B6000B619524141EB0101A3F10103BDE801891E
:101B70004FEA14454FEA114724EA054621EA074C8B
:101B800005FB07F406FB07F70CFB06F105FB0CFC55
:101B900011EB074144EB17444FEA124711EB0C419C
:101BA00044EB1C4422EA074C05FB07F206FB07F74F
:101BB0000CFB06F605FB0CFC16EB074642EB174246
:101BC00016EB0C4642EB1C456A1854F1000148BF65
:101BD0007047B619524141EB0101A3F1010370476F
:101BE00095F0000F37D04FEA11424FEA144721EA2F
:101BF000024624EA074C02FB07F106FB07F70CFB41
:101C000006F402FB0CFC14EB074441EB17414FEACE
:101C1000154714EB0C4441EB1C4125EA074C02FB31
:101C200007F506FB07F70CFB06F602FB0CFC16EBB0
:101C3000074645EB174516EB0C4645EB1C421219BF
:101C400051F1000148BF7047B619524141EB010103
:101C5000A3F1010370474FEA14454FEA114724EA04
:101C6000054621EA074C05FB07F106FB07F70CFBCD
:101C700006F24FF0000605FB0CFC12EB074241EBAD
:101C8000174112EB0C4251EB1C4148BF70479218B0
:101C900041EB0101A3F1010370472DE9F041074633
:101CA0000C4601F047FF054605E004F01DF938B980
:101CB000142001F06FFD01F03DFF401BA042F4D362
:101CC00001F038FF401BA04202D30020BDE8F081A4
:101CD00001F030FF054640F6B83605E004F0E7F8BD
:101CE00038B1502001F056FD01F024FF401BB042F6
:101CF000F4D301F01FFF401BB04201D30020E5E701
:101D0000012004F0B3F808B10020DFE701F012FF72
:101D1000054605E004F0E8F838B1142001F03AFD7A
:101D200001F008FF401BA042F4D301F003FF401B69
:101D3000A04201D30020C9E7C82001F02BFD01F02B
:101D4000F9FE054605E004F0CFF838B9142001F09B
:101D500021FD01F0EFFE401BA042F4D301F0EAFEAA
:101D6000401BA04201D30020B0E701F0E3FE04468F
:101D700005E004F09CF838B1502001F00BFD01F0B3
:101D8000D9FE001BB042F4D301F0D4FE001BB042D8
:101D900001D300209AE7022004F068F808B100207F
:101DA00094E704F0AFF808B100208FE7394601202E
:101DB00004F00CF908B1002088E7012086E7000054
:101DC00072B6084841888288914203D3418880884E
:101DD000081A04E081884088C1F58071084480B207
:101DE00062B670474400002030B5044672B6104A0F
:101DF00050889388984203D350889388C01A04E08F
:101E000090885388C0F58070184480B2814200D217
:101E1000084693880022074905E0CD5CA5545B1C69
:101E2000DBB2521C92B28242F7D362B630BD0000E0
:101E300044000020F804002010B5012103F0E4FF65
:101E400008B1002010BD012010BDF8B506460D46B2
:101E500001F070FE044605E004F046F838B91E2093
:101E600001F098FC01F066FE001BA842F4D301F0DB
:101E700061FE001BA84201D30020F8BD01F05AFE0C
:101E8000044640F6B83505E004F011F838B15020AA
:101E900001F080FC01F04EFE001BA842F4D301F0DB
:101EA00049FE001BA84201D30020F8BD012003F029
:101EB000DDFF08B10020F8BD6B4680220021012023
:101EC00004F03DF808B10020F8BD16B1BDF80000DF
:101ED00030800120F8BD00002DE9F041C0B0074678
:101EE00001F028FE05466E463FE0FFF769FF0C282B
:101EF00003D2022001F04EFC37E04FF480716846B7
:101F0000FFF772FF0024A0F1090329E0315DEF29FA
:101F100024D131194A78012A20D18A79072A01D09F
:101F2000022A1BD10A7AC97942EA012109311FFA32
:101F300081F804EB0801814210D8311942460E485D
:101F4000FEF7DDF972B60D48818821444144C9B2DB
:101F5000818062B6084840B0BDE8F081641CA4B23C
:101F60009C42D3DD022001F015FC01F0E3FD401B93
:101F7000B842BAD30020EEE77804002044000020E5
:101F800010B5074A5188491CC9B29388994204D0B8
:101F9000044B54881855518010BD0120107010BD9D
:101FA00044000020F80400202DE9F8439F49522006
:101FB00004F06AF900287DD19D4804F0A2F80028B9
:101FC00078D1DFF870C29C4D9C4E9CF800209C4F4D
:101FD0009C48FF2A0BD19CF80110FF2907D19CF8DF
:101FE0000210FF2903D19CF80310FF2903D02978A0
:101FF000FF2903D00BE0002181722AE06978FF29D4
:1020000005D1A978FF2902D1E978FF2903D03178D9
:10201000FF2903D00BE0012181721AE07178FF29BA
:1020200005D1B178FF2902D1F178FF2903D03978A1
:10203000FF2903D00BE0022181720AE07978FF29A1
:1020400005D1B978FF2902D1F978FF2959D00421A7
:102050008172774C0523217891420FD162789CF8E8
:10206000018042450AD1A2789CF80280424505D100
:10207000E2789CF80380424500D183722A7891422D
:102080000FD1627895F8018042450AD1A27895F87F
:102090000280424505D1E27895F80380424500D19F
:1020A00083723278914211D1627896F8018042456C
:1020B0000CD100E09CE0A27896F80280424505D160
:1020C000E27896F80380424500D183723A789142D3
:1020D0000FD1627897F8018042450AD1A27897F82B
:1020E0000280424505D1E27897F80380424500D14D
:1020F0008372807A06287BD2DFE800F00625405BF9
:10210000768603218172A4E78CF8001062788CF83F
:102110000120A3788CF80230E0788CF8030000905E
:10212000494801F03BF903F03DFA082347A21C217E
:10213000102003F085FD03F0FDFD00F065FBBDE818
:10214000F84304F0AEBD297062786A70A378AB7072
:10215000E078E8700090414801F020F903F022FA9D
:1021600008233FA21C21102003F06AFD03F0E2FDCA
:1021700000F04AFBBDE8F84304F093BD317062788B
:102180007270A378B370E078F0700090384801F076
:1021900005F903F007FA082336A21C21102003F0EA
:1021A0004FFD03F0C7FD00F02FFBBDE8F84304F03E
:1021B00078BD397062787A70A378BB70E078F87077
:1021C0000090304801F0EAF803F0ECF908232EA261
:1021D0001C21102003F034FD03F0ACFD00F014FBD3
:1021E000BDE8F84304F05DBD03F0DCF9082300E02E
:1021F0001AE01C2128A2084603F022FD03F09AFDF4
:1022000000F00DFB04F04DFD03F0CCF9082325A2EE
:102210001C21182003F014FD03F08CFD00F0FFFAE0
:10222000BDE8F84304F03DBDBDE8F8833D00002063
:1022300039000020290000202D000020310000205E
:10224000350000201400002000F00008C2BCC8EBDC
:10225000BFA8D2BBB3C9B9A6A3A1000000F400086F
:10226000C2BCC8EBBFA8B6FEB3C9B9A6A3A1000003
:1022700000F80008C2BCC8EBBFA8C8FDB3C9B9A626
:10228000A3A1000000FC0008C2BCC8EBBFA8CBC4DF
:10229000B3C9B9A6A3A10000BFA8CEBBD2D1C2FAD0
:1022A000A3A10000D0C2BFA8D2D1B4E6D4DAA3A1C2
:1022B0000000000010B5064C02F056FD607200F000
:1022C00009F8FFF771FE607A0028F5D0002010BDF4
:1022D000140000202DE9F84F04F064F9DFF80092B3
:1022E000804E814F99F80000DFF80082FF2833D13B
:1022F00099F80100FF282FD199F80200FF282BD16F
:1023000099F80300FF2827D13078FF2824D170786E
:10231000FF2821D1B078FF281ED1F078FF281BD1EB
:102320003878FF2818D17878FF2815D1B878FF2899
:1023300012D1F878FF280FD198F80000FF280BD1B0
:1023400098F80100FF2807D198F80200FF2803D170
:1023500098F80300FF2862D003F024F90021082335
:1023600063A2084603F06CFC08233A2200212020D7
:1023700003F0BAFB082360A21021002003F060FCE8
:1023800008233A221021202003F0AEFB08235CA290
:102390002021002003F054FC202108233A22084683
:1023A00003F0A2FB082358A23021002003F048FCD0
:1023B00008233A223021202003F096FB00244FF01E
:1023C000280A19F804000AEB0415009050A308220B
:1023D0000021284603F032FB305D009028464CA3D4
:1023E0000822102103F02AFB385D0090284648A3FC
:1023F0000822202103F022FB18F804000090284650
:1024000043A30822302103F019FB641CE4B2042C1E
:10241000D7D399F80000404CFF280CD01EE003F001
:10242000C1F808233DA21C21182003F009FCBDE8D7
:10243000F84F03F07FBC99F80100FF280ED199F8FE
:102440000200FF280AD199F80300FF2806D10021D5
:10245000102380220846009403F074FB3078FF2894
:102460000FD17078FF280CD1B078FF2809D1F0780F
:10247000FF2806D11023802219460020009403F083
:1024800061FB3878FF280FD17878FF280CD1B87815
:10249000FF2809D1F878FF2806D1102380222021B7
:1024A0000020009403F04EFB98F80000FF2812D1A2
:1024B00098F80100FF280ED198F80200FF280AD1F1
:1024C00098F80300FF2806D1102380223021002035
:1024D000009403F037FBBDE8F84F03F02BBC00007D
:1024E000290000202D0000203100002035000020B0
:1024F000BFA8D2BB00000000BFA8B6FE00000000CD
:10250000BFA8C8FD00000000BFA8CBC400000000A9
:102510002530325800000000DE980008C7EBC2BC2E
:10252000C8EBD0C2BFA8A3A10000000070B506464A
:1025300000F0CAFF042801D3002070BD002501244B
:10254000204601F09DF880B1641CE4B2042CF7D958
:102550006DB1681E80B23146FFF79FFB48B1284637
:1025600000F0ABFF38B1012070BD2546F0E7002038
:1025700070BD002070BD002070BD000010B5354C4E
:102580005EE01E2001F006F903F0AEFC88B303F014
:1025900009F8082330A21C21142003F051FB082362
:1025A0002E221C21542003F09FFA08232E221C21E6
:1025B0005C2003F099FA08232E221C21642003F0EA
:1025C00093FA03F0B7FB42F21070FFF7AFFFA8B128
:1025D00002F0E8FF1C21082322A2084603F030FB8A
:1025E00003F0A8FB00F010F94FF4167001F0D2F8D8
:1025F00018E0FFE7502001F0CDF821E002F0D2FF13
:102600001C2108231AA2084603F01AFB03F092FBD0
:1026100000F005F94FF4C87001F0BCF802E0322078
:1026200001F0B8F803F060FC0028F8D1C82001F0F0
:10263000B1F8502001F0AEF8607A08B1002010BD6A
:1026400002F092FB607200F019F803F04DFC0028D4
:10265000EFD096E714000020D5FDD4DAC2BCC8EB59
:1026600000000000C2BCC8EBB3C9B9A6A3A100001A
:10267000C2BCC8EBCAA7B0DCA3A100001FB50020F4
:1026800002AA4FF6FF7122F81010401CC0B20428B5
:10269000F9D3042102A800F01DFF02F083FF0021FE
:1026A000082339A2084603F0CBFA08233A22002176
:1026B000302003F019FA082335A21021002003F07E
:1026C000BFFA08233A221021302003F00DFA082324
:1026D00031A22021002003F0B3FA08233A2220215E
:1026E000302003F001FA08232DA23021002003F04E
:1026F000A7FA302108233A22084603F0F5F901240D
:10270000204600F0BDFFC8B130208DF800008DF8E4
:1027100001008DF802000A20B4FBF0F100FB11402B
:1027200030308DF8030000208DF80400601E010198
:1027300008236A46382003F083FA08E01A4800901C
:10274000601E010110238022002003F0FBF9641CAD
:10275000E4B2042CD4D900F0B7FE042808D302F068
:1027600021FF082311A21C210C2003F069FA08E0C4
:1027700038B902F017FF082310A21C21142003F01F
:102780005FFA03F0D7FA1FBDD6B8CEC6D2BB0000A1
:10279000D6B8CEC6B6FE0000D6B8CEC6C8FD00007C
:1027A000D6B8CEC6CBC40000DE980008D6B8CEC6D8
:1027B000D2D1C2FACBC4B8F6A3A10000C7EBC2BC09
:1027C000C8EBD6B8CEC6A3A100000000FEE710B546
:1027D00000F030F8322000F0DDFFBDE8104000F0DE
:1027E0000BB810B500F026F84FF4487000F0D2FF97
:1027F000BDE81040AFF3008001221102014801F052
:1028000092B90000000C014010B500F013F84FF42D
:10281000C87000F0BFFFBDE81040FFF7EDBF10B576
:1028200000F008F8C82000F0B5FFBDE81040FFF741
:10283000E3BF000000224FF48071014801F073B93A
:10284000000C01401CB5684603F010FC012808D0BC
:1028500008A10A48FDF7C0FD08B100201CBD0120F9
:102860001CBD69460548FDF7B7FD08B100201CBD39
:1028700001201CBD31313036000000002400002052
:102880001CB5684603F0F2FB012808D008A10A48ED
:10289000FDF7A2FD08B100201CBD01201CBD69464A
:1028A0000548FDF799FD08B100201CBD01201CBDA5
:1028B00031313036000000005200002070B505466E
:1028C0000C46284603F018FE20EA04012846BDE81D
:1028D000704004F0FFB9000008B50448006801E04A
:1028E0004168009101688906FAD408BD40060020BD
:1028F0000648016841F0807101600548002141608F
:10290000016841F00101016070470000FCED00E04A
:10291000001000E0704700002DE9F041FF244FF463
:10292000C8774FF4167601280AD002283ED0032833
:1029300072D004287ED16F4D2878FF287BD0ADE07F
:102940006D4D2878FF2808D16878FF2805D1A87830
:10295000FF2802D1E878FF2817D0684800F0A6FCCD
:102960002C706C70AC70EC7002F01CFE1C21082303
:1029700063A2084603F064F903F0DCF9FFF744FFB3
:102980003046BDE8F04100F005BF02F00BFE1C210F
:1029900008235EA2084603F053F903F0CBF9FFF7D2
:1029A0003EFF3846BDE8F04100F0F4BE5A4D2878AD
:1029B000FF2808D16878FF2805D1A878FF2802D120
:1029C000E878FF2817D0554800F070FC2C706C7028
:1029D000AC70EC7002F0E6FD1C21082348A208460A
:1029E00003F02EF903F0A6F9FFF70EFF3046BDE81D
:1029F000F04100F0CFBE02F0D5FD1C21082343A218
:102A0000084603F01DF903F095F9FFF708FF384673
:102A1000BDE8F04100F0BEBE414D2878FF2808D146
:102A20006878FF2805D1A878FF2802D1E878FF2828
:102A30001AD001E05BE028E03A4800F037FC2C7047
:102A40006C70AC70EC7002F0ADFD1C2108232CA260
:102A5000084603F0F5F803F06DF9FFF7D5FE3046B0
:102A6000BDE8F04100F096BE02F09CFD1C21082359
:102A700026A2084603F0E4F803F05CF9FFF7CFFE66
:102A80003846BDE8F04100F085BE6878FF2805D1E2
:102A9000A878FF2802D1E878FF2817D0224800F054
:102AA00005FC2C706C70AC70EC7002F07BFD1C218E
:102AB000082313A2084603F0C3F803F03BF9FFF71D
:102AC000A3FE3046BDE8F04100F064BE02F06AFDAE
:102AD0001C2108230DA2084603F0B2F803F02AF9DE
:102AE000FFF79DFE3846BDE8F04100F053BEBDE85B
:102AF000F0810000350000202900002000F00008CF
:102B0000C9BEB3FDB3C9B9A6A3A10000CEDED0A74C
:102B1000C9BEB3FDA3A100002D00002000F40008F1
:102B20003100002000F8000800FC000870B5364CA9
:102B3000002561E0012100E000210F2804D00022DF
:102B4000114303D0002070BD0122F9E70D2804D005
:102B50000E280AD0102817D110E0A079401EC0B26C
:102B6000A07188B90420A0710EE0A079401CC0B209
:102B7000A071052808D30120A07105E002F012FD24
:102B800003F0D8F8A0796071A079012806D0022856
:102B90000FD0032818D004282BD120E000F036F8FD
:102BA000002110236822084602F05EFF03F0C2F8FD
:102BB0001FE000F02BF8102368221946002002F0D5
:102BC00053FF03F0B7F814E000F020F81023682258
:102BD0002021002002F048FF03F0ACF809E000F0EB
:102BE00015F8102368223021002002F03DFF03F089
:102BF000A1F86079FFF790FE02F0B6F86072657197
:102C0000411E0B2998D895E7140000202DE9F84FB4
:102C100003F0C8FC002108235AA2084603F010F86C
:102C200008233A220021202002F05EFF082357A249
:102C30001021002003F004F808233A22102120205C
:102C400002F052FF082353A22021002002F0F8FFD7
:102C5000202108233A22084602F046FF08234FA20B
:102C60003021002002F0ECFF08233A2230212020FE
:102C700002F03AFF00244B4E4B4FDFF83081DFF873
:102C800030914FF0280A305D0AEB0415009049A3FB
:102C900008220021284602F0D1FE385D0090284627
:102CA00044A30822102102F0C9FE18F80400009085
:102CB000284640A30822202102F0C0FE19F8040093
:102CC000009028463BA30822302102F0B7FE641C86
:102CD000E4B2042CD7D33078384CFF280FD1707869
:102CE000FF280CD1B078FF2809D1F078FF2806D151
:102CF0000021102380220846009402F023FF387838
:102D0000FF280FD17878FF280CD1B878FF2809D197
:102D1000F878FF2806D1102380221946002000945D
:102D200002F010FF98F80000FF2812D198F8010077
:102D3000FF280ED198F80200FF280AD198F8030066
:102D4000FF2806D11023802220210020009402F0C9
:102D5000F9FE99F80000FF2812D199F80100FF2828
:102D60000ED199F80200FF280AD199F80300FF2834
:102D700006D11023802230210020009402F0E2FED0
:102D8000BDE8F88FBFA8D2BB00000000BFA8B6FE08
:102D900000000000BFA8C8FD00000000BFA8CBC411
:102DA00000000000290000202D000020310000203C
:102DB000350000202530325800000000DE98000861
:102DC00070B50546681E044604282DD2284600F03A
:102DD00057FCB8B1A0B2FFF72FF8284600F09BFBD4
:102DE00002F0E0FB1C21082310A2084602F028FF95
:102DF00002F0A0FFFFF708FDBDE870404FF4167029
:102E000000F0C8BC02F0CEFB1C2108230AA2084631
:102E100002F016FF02F08EFFFFF701FDBDE87040E3
:102E20004FF4C87000F0B6BC70BD0000C9BEB3FD61
:102E3000B3C9B9A6A3A10000CEDED0A7C9BEB3FD19
:102E4000A3A1000070B5364C002561E0012100E02F
:102E500000210F2804D00022114303D0002070BDB0
:102E60000122F9E70D2804D00E280AD0102817D126
:102E700010E0E079401EC0B2E07188B90420E07132
:102E80000EE0E079401CC0B2E071052808D30120B3
:102E9000E07105E002F086FB02F04CFFE079207261
:102EA000E079012806D002280FD0032818D0042882
:102EB0002BD120E000F036F80021102358220846DC
:102EC00002F0D2FD02F036FF1FE000F02BF81023D5
:102ED00058221946002002F0C7FD02F02BFF14E033
:102EE00000F020F8102358222021002002F0BCFD21
:102EF00002F020FF09E000F015F8102358223021DD
:102F0000002002F0B1FD02F015FF207AFFF758FF14
:102F100001F02AFF60722572411E0B2998D895E7AF
:102F2000140000201FB5002002AA4FF6FF7122F8FE
:102F30001010401CC0B20428F9D3042102A800F0EC
:102F4000C9FA02F02FFB002108232DA2084602F047
:102F500077FE08233A220021302002F0C5FD082325
:102F600029A21021002002F06BFE08233A22102132
:102F7000302002F0B9FD082325A22021002002F014
:102F80005FFE08233A222021302002F0ADFD082305
:102F900021A23021002002F053FE302108233A22E2
:102FA000084602F0A1FD0124204600F069FBC8B1EB
:102FB00030208DF800008DF801008DF802000A2005
:102FC000B4FBF0F100FB114030308DF8030000201D
:102FD0008DF80400601E010108236A46382002F0C3
:102FE0002FFE08E00E480090601E01011023802291
:102FF000002002F0A7FD641CE4B2042CD4D91FBD4C
:10300000D6B8CEC6D2BB0000D6B8CEC6B6FE00003B
:10301000D6B8CEC6C8FD0000D6B8CEC6CBC4000018
:10302000DE980008F8B5082323A20021102002F042
:1030300007FE2548009010230E221C21042002F0D8
:1030400081FD2248009010230E221C216E2002F0E8
:1030500079FD02F06FFE00241D4F1E26F8688442A1
:1030600012DA04EB840006EB8000054608232022D8
:103070001C2102F039FD284608232A221C2102F0D7
:1030800033FD02F057FE11E004EB840006EB8000F4
:103090000546082320221C2102F026FD284608238D
:1030A0005F221C2102F020FD02F044FE641CE4B209
:1030B000042CD3D3F8BD0000C7EBCAE4C8EBD0C2E0
:1030C000C3DCC2EB00000000C2970008DE970008D6
:1030D00014000020F8B5082323A20021102002F0DC
:1030E000AFFD2548009010230E221C21042002F081
:1030F00029FD2248009010230E221C216E2002F090
:1031000021FD02F017FE00241D4F1E26F8688442A0
:1031100012DA04EB840006EB800005460823202227
:103120001C2102F0E1FC284608232A221C2102F07F
:10313000DBFC02F0FFFD11E004EB840006EB8000F5
:103140000546082320221C2102F0CEFC2846082335
:103150005F221C2102F0C8FC02F0ECFD641CE4B20A
:10316000042CD3D3F8BD0000CAE4C8EBB3F5CABC45
:10317000C3DCC2EB00000000C2970008DE97000825
:1031800014000020F8B5082323A20021102002F02B
:1031900057FD2548009010230E221C21042002F028
:1031A000D1FC2248009010230E221C216E2002F038
:1031B000C9FC02F0BFFD00241D4F1E26F8688442A2
:1031C00012DA04EB840006EB800005460823202277
:1031D0001C2102F089FC284608232A221C2102F027
:1031E00083FC02F0A7FD11E004EB840006EB8000F5
:1031F0000546082320221C2102F076FC28460823DD
:103200005F221C2102F070FC02F094FD641CE4B209
:10321000042CD3D3F8BD0000CAE4C8EBCBC4CEBBAA
:10322000C3DCC2EB00000000C2970008DE97000874
:103230001400002072B6FEE7042802D34FF6FF7098
:103240007047024931F81000704700000000010883
:1032500070B586B006460024019400F051FB02943C
:10326000114D04950120059001A902A800F0A4FACF
:1032700020B100F0F5FA002006B070BD002405EB87
:10328000440136F814200023012000F0F3FA18B1AD
:1032900000F0E6FA0020EFE7641CE4B2042CEED361
:1032A00000F0DEFA0120E7E70000010810B586B063
:1032B000044600F025FB002101910291A00A800242
:1032C00004900120059001A902A800F075FA00F011
:1032D000C7FA06B010BD000006490020C8610648C4
:1032E000016941F004010161016941F0400101619E
:1032F000704700005800002000200240064A0021CC
:10330000D16106490A6942F002020A61486108690E
:1033100040F0400008617047580000200020024043
:10332000044B0022DA61044A136943F0010313617C
:10333000018070475800002000200240008870473C
:1033400000201449CA68D306134A04D5D06940F056
:103350000200D0611020CB685B0705D5D36943F02C
:103360000103D36140F00400CB69DB0707D0D369C8
:1033700043F00403D361CA6922F00102CA61A0F5D7
:103380008072013A01D0C8607047C86920F001001E
:10339000C861704700200240580000202DE9F0412C
:1033A00086B004460E46154698460C9F00F0A8FAD3
:1033B000002001900290A00A800204900120059054
:1033C00001A902A800F0F8F93246002321460120A5
:1033D00000F050FA2A460023A11C012000F04AFA0E
:1033E00042460023211D012000F044FA3A46002302
:1033F000A11D012000F03EFA00F032FA06B0BDE84F
:10340000F081000070B5044600F094FB0546114EB3
:1034100009E0601C07D024B100F08CFB401BA042E7
:1034200001D9032070BDF068C007F2D1F0688006B2
:1034300001D52020F060F068C00605D4F069C0070F
:1034400002D1F068400703D5FFF77AFF012070BD75
:10345000002070BD002002402DE9FC4105464FF6DA
:10346000FF77BD4202D10020BDE8FC8100246E46FA
:103470002046FFF7E1FE26F81400641CE4B2042C99
:10348000F6D3002036F81010A94201D10120EBE755
:10349000401CC0B20428F5D3002036F81010B94201
:1034A00005D126F810506846FFF7D2FEDCE7401C35
:1034B000C0B20428F1D30020D6E7411E042901D36D
:1034C00000207047FFF7C8BF1CB50421684600F014
:1034D00001F81CBD2DE9F04106460F46002E05D02F
:1034E00027B1002400254FF6FF780EE00020BDE84C
:1034F000F0812846FFF7A0FE404504D02146641C19
:10350000E4B226F811006D1CEDB2042D01D2BC42CC
:10351000EFD32046EBE77CB50646701E042801D3A6
:1035200000207CBD00246D462046FFF785FE25F86F
:103530001400641CE4B2042CF6D30022002035F8F9
:103540001010B14205D14FF6FF7125F8101001227D
:1035500003E0401CC0B20428F1D31AB16846FFF75B
:1035600077FE7CBD00207CBD10B53A4C6CE00E2887
:103570000AD0102810D118E02078401EC0B2207068
:1035800050B90620207007E02078401CC0B220709F
:10359000072801D3012020702078072854D2DFE8C3
:1035A00000F053121D28333E49002078042807D02C
:1035B000FFF70DF901F0F6FF02F0BCFB207810BD1B
:1035C000FFF70FF9F6E701F075FE002110236022E6
:1035D000084602F049FA02F0ADFB35E001F06AFE60
:1035E000102360221946002002F03EFA02F0A2FBEE
:1035F0002AE001F05FFE102360222021002002F06B
:1036000033FA02F097FB1FE001F054FE1023402232
:103610003021002002F028FA02F08CFB14E001F0C7
:1036200085FE002110236022084602F01DFA02F0F8
:1036300081FB09E001F07AFE102360221946002088
:1036400002F012FA02F076FB01F08EFB60720D2898
:1036500092D08CE71400002000B585B000200190C6
:103660000648039001200490029000F020F869467B
:1036700001A800F0A1F805B000BD000000E80008B6
:103680001CB5044604216846FFF724FF00216A4662
:1036900007E032F81130A34201D101201CBD491CC2
:1036A000C9B28142F5D300201CBD00F0D9B800F0AA
:1036B00027B910B590F821100022022905D0042165
:1036C000816380F82020012010BD01680B6823F081
:1036D0000E030B6001680B6823F001030B6090F888
:1036E0004030C46B012101FA03F3636080F82110BC
:1036F00080F82020104610BD10B5002490F821104D
:10370000022903D00421816301243DE001680A6895
:1037100022F00E020A6001680A6822F001020A60C3
:103720001A4A0168914201D1012121E0174A14325D
:10373000914201D110211BE0144A2832914201D15B
:10374000891515E0114A3C32914201D189140FE0EC
:103750000E4A5032914202D14FF4803108E00B4AB8
:103760006432914202D14FF4801101E04FF0807138
:10377000064A083A5160012180F82110002180F8A2
:103780002010416B01B18847204610BD080002405F
:10379000806B704770B5044600F0CCF90546601C9C
:1037A00002D004480078044400F0C4F9401BA04251
:1037B000FAD370BD000000202DE9F04705460F4602
:1037C0004FF0010ADFF8908098F8180001280DD01A
:1037D000012088F818002868204E4CF25039022841
:1037E00007D04846FFF70EFE98B12FE00220BDE853
:1037F000F0874846FFF706FEF8B90120FFF76CFD99
:103800004846FFF7FFFD8246306920F00400306132
:103810001CE04FF0FF303860AC6811E02046FFF745
:103820006DFD4846FFF7EEFD8246306920F002004C
:1038300030615FEA0A0001D03C6007E004F5806473
:10384000D5E9020100EB8120A042E7D8002088F8EA
:1038500018005046CBE7000058000020002002402E
:103860000348016941F080010161002070470000B8
:10387000002002402DE9F05F0746884615461E46A7
:103880000024DFF8749099F81800012809D001206D
:1038900089F818004CF2503B5846FFF7B3FD18B1B9
:1038A00026E00220BDE8F09F012F05D0022F05D0B1
:1038B0000427DFF848A019E00127FAE70227F8E714
:1038C000220128463146FCF7D5FC81B208EB4400C2
:1038D000FFF726FD5846FFF795FDDAF8101021F0A6
:1038E0000101CAF8101018B9641CE4B2BC42E7D355
:1038F000002189F81810D5E7580000200020024068
:10390000002006490A69120607D5054A4A60054A99
:103910004A600969090600D501207047002002406D
:1039200023016745AB89EFCD2DE9F84F0024002333
:10393000DFF8C4914FF00F08A9F1040B09F1040A54
:10394000ABF1040ED1E00127A7403A40BA4275D14D
:10395000DFF8A8C14D68A5EB0C0665452BD00DDC42
:10396000032D34D005DC35B3012D19D0022D2FD114
:103970001BE0112D16D0122D2AD119E0B6F5881FA3
:1039800019D006DCB6F5803F15D0B6F5801F1FD1E3
:1039900011E0B6F5001F0ED0B6F5041F18D10AE0ED
:1039A000CB6815E0CB681B1D12E0CB6808330FE035
:1039B000CB680C330CE08B6823B1012B04D00823B7
:1039C000476105E0042303E00823076100E00023CA
:1039D000FF2A01D8054601E000F1040502D84FEAAC
:1039E000840603E0A4F108064FEA86062F6808FA69
:1039F00006FC27EA0C0703FA06F647EA06072F60DB
:103A00004D68ED0070D53E4DAE6946F00106AE61E1
:103A1000AD6905F0010500953A4D24F003067719CC
:103A2000BE68A5072D0F08FA05FC26EA0C06DFF88C
:103A3000D8C0604503D14FF0000C17E054E0DFF828
:103A4000CCC0604502D14FF0010C0FE0DFF8C0C0E0
:103A5000604502D14FF0020C08E0DFF8B8C06045C5
:103A600002D14FF0030C01E04FF0040C0CFA05FCFE
:103A70004CEA060CC7F808C04D68ED0205D5D9F828
:103A800000501543C9F8005004E0D9F800509543A0
:103A9000C9F800504D68AD0205D5DAF8005015435D
:103AA000CAF8005004E0DAF800509543CAF8005014
:103AB0004D68AD0305D5DBF800501543CBF8005039
:103AC00004E0DBF800509543CBF800504D68ED035F
:103AD00005D5DEF800501543CEF8005004E0DEF8BE
:103AE00000509543CEF80050641C0A6832FA04F581
:103AF0007FF429AFBDE8F88F0804014000001110E1
:103B0000001002400000014000080140000C01408C
:103B100000100140001401408068084201D00120DB
:103B2000704700207047002A01D0016170470904E6
:103B30000161704701488068704700000000002064
:103B400002488168027811448160704700000020BB
:103B500010B50748016841F010010160032000F032
:103B60007BF8002000F006F800F026F8002010BDD9
:103B70000020024070B504460D4D4FF47A7128784C
:103B8000B1FBF0F00B490968B1FBF0F000F02EFB3F
:103B900008B1012070BD102C07D200222146501E12
:103BA00000F03AF86C60002070BD012070BD00008C
:103BB000000000200C00002008B50E48816941F08B
:103BC00001018161816901F001010091C16941F048
:103BD0008051C161C06900F080500090052000F064
:103BE0003BF80549486820F0E06040F0007048600C
:103BF00008BD00000010024000000140002809DB61
:103C000000F01F02012191404009800000F1E020F6
:103C1000C0F8001170470000F0B40D460D4B1B6852
:103C2000C3F30223C3F10704042C00D90424191D93
:103C3000072901D2002300E0DB1E012606FA04F169
:103C4000491E294099409E40761E16403143F0BCE3
:103C500003F0B0B80CED00E000F00701054A106871
:103C60004FF6FF03184040EA012003490843106063
:103C7000704700000CED00E00000FA052DE9F04768
:103C800004460D46002C17D0DFF83081D8F800002C
:103C900000F00700A84211D2D8F8000020F0070079
:103CA0002843C8F80000D8F8000000F00700A84238
:103CB00004D00120BDE8F0870120FBE72068404EDA
:103CC000810712D5400703D5706840F4E06070604A
:103CD0002078000703D5706840F460507060706809
:103CE000A16820F0F000084370602078C0072CD055
:103CF0006068012806D0022809D0316889070BD4F2
:103D00000120D7E73168890306D40120D2E7316862
:103D1000890101D40120CDE7716821F0030101433D
:103D20007160FFF707FF074641F2883906E0FFF7A9
:103D300001FFC01B484501D90320BBE770686168DB
:103D400000F00C00B0EB810FF1D1D8F8000000F0CA
:103D50000700A8420ED9D8F8000020F00700284339
:103D6000C8F80000D8F8000000F00700A84201D011
:103D700001209FE72078400705D57068E16820F4AE
:103D8000E060084370602078000706D570682169FC
:103D900020F4605040EAC100706000F03FF87168A4
:103DA000084AC1F30311515CC8400749086007483D
:103DB0000068FFF7DFFE00207CE7000000200240E3
:103DC00000100240647900080C000020040000206C
:103DD00001480068704700000C00002000B5FFF7A4
:103DE000F7FF04494968044AC1F30221515CC84005
:103DF00000BD0000001002407479000800B5FFF714
:103E0000E7FF04494968044AC1F3C221515CC84034
:103E100000BD000000100240747900080E4B596884
:103E20000E4801F00C02042A11D0082A0FD10C48C8
:103E3000C1F38342805CC9030AD55968084AC1F3BB
:103E40004041921E515C054A5043B0FBF1F070476F
:103E500004494843704700000010024000127A00F5
:103E60005479000800093D002DE9F84F0446002C64
:103E70000ED02078D94DC0075ED06868C0F38100AD
:103E800001280BD06868C0F38100022803D00CE041
:103E90000120BDE8F88F6868C00306D52868800354
:103EA0004AD56068A8BB0120F3E76068B0F5803FA1
:103EB00011D0A8B1B0F5A02F1BD0286820F4803015
:103EC0002860286820F480202860606830B3FFF7FD
:103ED00031FE06461EE0286840F480302860F4E792
:103EE000286820F480302860286820F4802028602A
:103EF000EBE7286840F480202860286840F4803090
:103F00002860E2E7FFF716FE801B642802D9032031
:103F1000BFE711E028688003F4D50DE0FFF70AFE43
:103F2000064606E0FFF706FE801B642801D9032041
:103F3000AFE728688003F5D42078DFF8A4828007F3
:103F40004FF0010A4FF0000945D5686810F00C0FDA
:103F500007D06868C0F38100022812D16868C003E6
:103F60000FD42868800704D52069012801D00120DA
:103F70008FE72868616920F0F80040EAC1002860F6
:103F800029E02069B8B1C8F800A0FFF7D3FD0646C4
:103F900006E0FFF7CFFD801B022801D9032078E758
:103FA00028688007F5D52868616920F0F80040EAA4
:103FB000C10028600FE0C8F80090FFF7BBFD06467F
:103FC00006E0FFF7B7FD801B022801D9032060E758
:103FD00028688007F5D42078000726D58148A16994
:103FE00099B1C0F800A0FFF7A5FD064606E0FFF76F
:103FF000A1FD801B022801D903204AE7686A8007D7
:10400000F5D5012002F0A8F90FE0C0F80090FFF705
:1040100091FD064606E0FFF78DFD801B022801D9C1
:10402000032036E7686A8007F5D42078400773D507
:104030000026E869C00008D4E86940F08050E861D3
:10404000E86900F0805000900126DFF89CB1DBF8B1
:104050000000C00514D4DBF8000040F48070CBF8F9
:104060000000FFF767FD074606E0FFF763FDC01B92
:10407000642801D903200CE7DBF80000C005F4D563
:10408000E068012812D0B0B105281DD0286A20F0C0
:1040900001002862286A20F004002862E06841F2EA
:1040A000883B28B3FFF746FD07461DE0286A40F02D
:1040B00001002862F2E7286A20F001002862286ADD
:1040C00020F004002862E9E7286A40F00400286232
:1040D000286A40F001002862E0E7FFF72BFDC01BD3
:1040E000584501D90320D4E6286A8007F5D50DE0AC
:1040F000FFF720FD074606E0FFF71CFDC01B5845F3
:1041000001D90320C5E6286A8007F5D4012E03D122
:10411000E86920F08050E861E069A0B36968C1F304
:104120008101022946D0022805D0C8F86090FFF727
:1041300001FD04463AE0C8F86090FFF7FBFC064634
:1041400006E0FFF7F7FC801B022801D90320A0E658
:1041500028688001F5D4206AB0F5803F05D16868F1
:10416000A16820F4003008436860D4E908010843DE
:10417000696821F4741108436860C8F860A0FFF70B
:10418000D9FC044607E026E0FFF7D4FC001B022818
:1041900001D903207DE628688001F5D51BE0FFF7F3
:1041A000C9FC001B022801D9032072E6286880019F
:1041B000F5D410E001280CD06868226A00F4803140
:1041C000914204D1616A00F47010884203D001204A
:1041D0005FE601205DE600205BE600000010024083
:1041E00000004242800442420070004010B5401E70
:1041F000B0F1807F01D3012010BD4FF0E024606159
:104200000F21601702F0D6FD0020A0610720206179
:10421000002010BD7047704770B590F83C20012A0F
:1042200025D0012680F83C60022280F83D200268FB
:104230005468936824F070050C682C4354600D4C4E
:104240000268A24208D0B2F1804F05D00A4CA242C7
:1042500002D00A4CA24204D123F0800349681943DA
:1042600091603C30467000210170002070BD02203A
:1042700070BD0000002C0140000400400008004018
:1042800010B50446002C03D094F83D0010B107E0AF
:10429000012010BD002084F83C00204600F016F8F4
:1042A000022084F83D00211D206802F0DBFA012085
:1042B0003D3460726070A070E07020716071A07118
:1042C000E07120722070002010BD000008B5006869
:1042D000B0F1804F12D10A48C16941F00101C161BA
:1042E000C06900F001000090022211461C20FFF777
:1042F00093FCBDE808401C20FFF780BC08BD00000F
:104300000010024090F83D10012901D001207047B3
:10431000022180F83D100168CA6842F00102CA60BB
:1043200000680E49884208D0B0F1804F05D00C4992
:10433000884202D00B49884209D1816801F0070107
:10434000062908D0016841F00101016003E001681D
:1043500041F001010160002070470000002C014085
:10436000000400400008004070B50446002594F8A1
:104370003C00012817D0012684F83C60022084F814
:104380003D002068826822F0770222F47F4282603A
:104390000868502838D00DDC202853D005DC90B3B5
:1043A000102811D14EE0022070BD30284AD040289C
:1043B0000AD13DE0602831D070280CD0B0F5805F84
:1043C00003D0B0F5005F12D001253C3466700020A8
:1043D0002070284670BDCB68D1E90121206802F029
:1043E0007DFA2068816841F077018160EDE7CB6854
:1043F000D1E90121206802F071FA2068816841F456
:1044000080418160E1E71DE0CA684968206802F0E8
:1044100077FA5021206802F06BFAD6E7CA6849683B
:10442000206802F07EFA6021206802F061FACCE791
:10443000CA684968206802F063FA4021206802F0E7
:1044400057FAC2E722680146104602F051FABCE76B
:1044500070472DE9F04104462068C56806694FF0B1
:104460000007B10714D5A90712D5F91E0161012073
:10447000207720688069800703D02046FFF7E8FF97
:1044800005E0204600F081F8204600F07FF827770D
:10449000700717D5680715D521686FF0040008610B
:1044A000022020772068806910F4407F03D02046E6
:1044B000FFF7CEFF05E0204600F067F8204600F049
:1044C00065F82777300716D5280714D521686FF0CF
:1044D00008000861042020772068C069800703D0A5
:1044E0002046FFF7B5FF05E0204600F04EF82046D5
:1044F00000F04CF82777F00617D5E80615D52168A7
:104500006FF010000861082020772068C06910F45F
:10451000407F03D02046FFF79BFF05E0204600F0D8
:1045200034F8204600F032F82777F00708D0E80783
:1045300006D021686FF001000861204600F027F8DE
:10454000300608D5280606D521686FF0800008617E
:104550002046FFF75FFE700608D5680606D521687D
:104560006FF040000861204600F018F8B0060AD548
:10457000A80608D521686FF0200008612046BDE834
:10458000F041FFF748BEBDE8F08170477047006812
:10459000B0F1804F01D100F0D5BC70477047704733
:1045A00070B5044620680C3050E8001F21F490716B
:1045B00040E80012002AF5D12068143050E8001FAE
:1045C00021F0010140E80012002AF5D1206B0128FA
:1045D00009D120680C3050E8001F21F0100140E89C
:1045E0000012002AF5D1206840694FF0000540060E
:1045F00015D52068143050E8001F21F0400140E834
:104600000012002AF5D1E06B48B14563E06BFFF77B
:1046100050F820B1E06BFFF7BBF8202806D0E58505
:10462000202084F842002563002070BD10206064C3
:10463000032070BD70470000F8B50446226810687A
:10464000D168536900F00F06002E08D1850606D503
:104650008D0604D52046BDE8F84002F0B0B900252B
:10466000002E66D003F0010601F49077374360D046
:10467000C20705D0CA0503D5626C42F0010262642C
:10468000420705D5DA0703D0626C42F00202626489
:10469000820705D5DA0703D0626C42F00402626437
:1046A000020707D501F02002324303D0626C42F0CA
:1046B00008026264626C002A31D0800604D5880644
:1046C00002D5204602F07BF920684069C0F38010D3
:1046D000616C090700D438B3204602F03CF9206829
:1046E000406940061CD52068143050E8001F21F0B6
:1046F000400140E80012002AF5D1E06B60B1594951
:104700004163E06BFEF7F8FF002808D0E06B416BD7
:1047100001B0BDE8F04008472046FFF78BFFF8BD29
:104720002046FFF787FFF8BD2046FFF783FF65644B
:10473000F8BD236B012B7DD1C3067BD5CB067ED57F
:1047400010685068009050694FF0200340064FF009
:10475000020643D5E16B0868406880B20028E7D0C4
:10476000A28D8242E4D9E085886920282DD0206876
:104770000C3050E8001F21F4807140E80012002A3C
:10478000F5D12068143050E8001F21F0010140E805
:104790000012002AF5D12068143050E8001F21F0E3
:1047A000400140E80012002AF5D184F84230256328
:1047B00020680C3050E8001F21F0100140E8001282
:1047C000002AF5D1E06BFEF774FF6663A08DE18DE2
:1047D000401A81B22046FFF7E2FEF8BDA08DE18DC0
:1047E000401A81B2E08D0028F7D00029F5D020686A
:1047F0000C3050E8002F22F4907240E80027002F80
:10480000F5D12068143050E8002F22F0010240E872
:104810000027002FF5D184F84230256320680C3042
:1048200050E8002F22F0100240E80023002BF5D1C1
:10483000666300E003E02046FFF7B1FEF8BD020624
:1048400006D50A0604D52046BDE8F84002F094B922
:104850004006F3D54806F1D52046BDE8F84002F001
:10486000A1B800004769000870B50446002C04D0C8
:1048700094F84100002510B106E0012070BD84F8D5
:104880004050204600F024F8242084F8410020689D
:10489000C16821F40051C160204602F0F5F820689B
:1048A000016921F4904101612068416921F02A01E8
:1048B00041612068C16841F40051C16065642020F5
:1048C00084F8410084F842006563002070BD000058
:1048D00070B586B0002402940394049405942F4E7E
:1048E00002682F49022003232E4DB24229D18A6942
:1048F00042F480428A618A6902F4804201928A69A4
:1049000042F004028A61896901F004010191010207
:1049100002910390059302A92846FFF705F829158F
:1049200002910394049402A92846FEF7FDFF022297
:1049300011462520FFF770F92520FFF75FF906B033
:1049400070BD194EB242FAD1CA6942F40032CA614E
:10495000CA6902F4003201928A6942F004028A6153
:10496000896901F0040101910421029103900593EA
:1049700002A92846FEF7D8FF082102910394049467
:1049800002A92846FEF7D0FF022211462620FFF793
:1049900043F92620FFF732F9D1E700000038014043
:1049A00000100240000801400044004090F84230EE
:1049B000202B01D00220704721B11AB100230363DC
:1049C00002F0BEB80120704710B50D4A016891424F
:1049D00005D10C4A002111710121921E117000684D
:1049E000094988420AD109480078FDF7C9FABDE8AB
:1049F0001040012205490648FFF7D8BF10BD00004E
:104A000000380140520000200044004057000020C0
:104A1000880600202DE9F84304460E4615461F4639
:104A200094F84100202802D00220BDE8F8837EB12E
:104A300075B100206064212084F84100FFF77AF806
:104A40008146A584E584A068B0F5805F02D003E0CC
:104A50000120EAE7206920B1354600264FF0200802
:104A600015E00025FAE74B460022802120460097FA
:104A700002F0B1F818B184F841800320D5E7ADB158
:104A8000216815F8010B4860E08C401EE084E08C42
:104A90000028E8D14B46002240212046009702F032
:104AA0009AF850B184F841800320BEE736F8020B33
:104AB0002168C0F308004860E6E784F841800020E0
:104AC000B3E77047FEE7000070B50A2801D010B1C7
:104AD00002E0002000E00A20244B0025A3F110048E
:104AE0000928E16807D8042922DA30304A1CE2603C
:104AF00058549D541CE00F2802D0102806D017E00F
:104B0000002915DD491EE1605D5411E0042913D030
:104B1000082317A23021102001F092F801F00AF9C1
:104B2000FDF77DFE4FF41670FEF734FE00F03AFDFF
:104B3000BDE87040FEF776BA00F034FD1C21082372
:104B40000FA2084601F07CF801F0F4F8074801F0E4
:104B50009DFAFDF759FE4FF4C870FEF71BFE00F0FA
:104B600021FD0120E0702071E2E700002400002018
:104B7000C3DCC2EBB2BBD7E3CBC4CEBB00000000AA
:104B8000D0DEB8C4B3C9B9A6A3A100002DE9F04195
:104B90000A2801D010B102E0002000E00A20294ECE
:104BA000002506F11004F168092807D8042923DA42
:104BB00030304A1CF2606054A5541DE00F2802D02A
:104BC000102806D018E0002916DD491EF160655452
:104BD00012E04FF41677042912D008231AA23021CC
:104BE000102001F02DF801F0A5F8FDF718FE384669
:104BF000FEF7D0FD00F0D6FCBDE8F041FEF76ABA42
:104C0000FDF720FE30B1FDF70AFE00F0CBFC00F00E
:104C1000ADFCF1E700F0C6FC1C2108230EA20846FB
:104C200001F00EF801F086F8FDF7EEFD3846FEF7CC
:104C3000B1FD00F0B7FC00202554401C0528FBD333
:104C4000F560D9E714000020C3DCC2EBB2BBD7E3A8
:104C5000CBC4CEBB00000000C3DCC2EBB4EDCEF38E
:104C6000A3A100002DE9F0410A2801D010B102E013
:104C7000002000E00A20314E002506F11004F16802
:104C8000092807D8042923DA30304A1CF26060541E
:104C9000A5541DE00F2802D0102806D018E00029E6
:104CA00016DD491EF160655412E04FF416770429B1
:104CB00012D0082322A23021102000F0C1FF01F001
:104CC00039F8FDF7ACFD3846FEF764FD00F06AFCEC
:104CD000BDE8F041FEF756BAFDF7B4FDA8B100F00B
:104CE00061FC1C2108231AA2084600F0A9FF01F06C
:104CF00021F8FDF776FD012000F03AFB00F052FCB0
:104D000001203070B0707070E2E700F04BFC1C21A5
:104D1000082312A2084600F093FF01F00BF8FDF7FC
:104D200073FD3846FEF736FD00F03CFC00202554AC
:104D3000401C0528FBD3F560CAE7000014000020E2
:104D4000C3DCC2EBB2BBD7E3CBC4CEBB00000000D8
:104D5000BDE2CBF8B3C9B9A6A3A10000C3DCC2EB86
:104D6000B4EDCEF3A3A100000449C878002802D016
:104D70000022CA7070470020704700001000002019
:104D800070B56E4C002210212046FEF7CCFE0122A9
:104D900020212046FEF7C7FE012240212046FEF7D3
:104DA000C2FE012280212046FEF7BDFE08212046DA
:104DB000FEF7B2FE00287DD0614EE514294630464C
:104DC000FEF7AAFE002876D002212046FEF7A4FEB8
:104DD000002871D001212046FEF79EFE00286CD0ED
:104DE000012210212046FEF79EFE002220212046AF
:104DF000FEF799FE012240212046FEF794FE012293
:104E000080212046FEF78FFE08212046FEF784FE13
:104E1000002876D029463046FEF77EFE002872D064
:104E200002212046FEF778FE002870D0012120469E
:104E3000FEF772FE00286CD0012210212046FEF7FA
:104E400072FE012220212046FEF76DFE0022402145
:104E50002046FEF768FE012280212046FEF763FE11
:104E600008212046FEF758FE40B329463046FEF79B
:104E700053FEC8B302212046FEF74EFEA8B301211F
:104E80002046FEF749FE88B3012210212046FEF796
:104E90004AFE012220212046FEF745FE0122402144
:104EA0002046FEF740FE002280212046FEF73BFE12
:104EB000082104E01DE01EE01FE020E02BE020467A
:104EC000FEF72AFE78B329463046FEF725FE58B392
:104ED00002212046FEF720FE38B301212046FEF7CE
:104EE0001BFE48B3002070BD17E018E019E008E091
:104EF00009E00120F7E70220F5E70320F3E70420AB
:104F0000F1E70520EFE70620EDE700E001E00720EC
:104F1000E9E70820E7E70920E5E70A20E3E70B20B7
:104F2000E1E70C20DFE701E002E003E00D20DAE733
:104F30000E20D8E70F20D6E71020D4E7000C014060
:104F40000008014010B50A4C2078401CC0B2207007
:104F500014280CD300202070A0786070FFF710FF99
:104F6000A070002803D16078002800D0E07010BD48
:104F70001000002010B500F00DF8FFF7F5FE044911
:104F80004872002803D0BDE8104001F06BBE10BD90
:104F90001400002008B500F005FB0C481823009011
:104FA0001A460A21322000F0CDFD082308A228214C
:104FB000202000F045FE102340222821202000F070
:104FC00053FDBDE8084000F0B5BE0000969800080B
:104FD000C3DCC2EBBDE2CBF80000000010B54128F5
:104FE00001D0FF2010BD08210846FDF767FC3D21D8
:104FF000112001F06FFE8621172001F06BFE7F214A
:10500000262001F067FE1E212D2001F063FE002105
:105010002C2001F05FFE8D212A2001F05BFE3E2155
:105020002B2001F057FE012001F0DBFE01F05CF8BF
:10503000002010BD2DE9F04F85B0002401940294AA
:10504000039404944848816941F0100181618169A9
:1050500001F010010091816941F0200181618169B5
:1050600001F020010091816941F0040181618169B1
:1050700001F004010091816941F0080181618069BA
:1050800000F008000090DFF8E4A00122E221504681
:10509000FEF749FDDFF8D8B04FF4406800224146E2
:1050A0005846FEF740FD012243F2F0115846FEF744
:1050B0003AFD4FF41049002249465046FEF733FDB1
:1050C0000125019502940227039701A95046FEF796
:1050D0002BFCE2200190029503940326049601A97B
:1050E0005046FEF721FC102001900294039401A980
:1050F0005046FEF719FC0B2001900294039501A97C
:105100005846FEF711FCCDF80480029503970496EB
:1051100001A95846FEF708FC3003019011200290C7
:105120000395049601A95846FEF7FEFBE80201909C
:105130000294039501A95046FEF7F6FBCDF80490C2
:1051400002950397049601A95046FEF7EDFB4FF434
:10515000F870019002950394049601A95846FEF751
:10516000E3FB05B0BDE8F08F0010024000080140ED
:10517000000C014010B586B00024029403940494FE
:1051800005940094019414484FF080410160472138
:105190004160846040F2E731C16004618021816137
:1051A000FFF76EF808B1FEF745F84FF48050029013
:1051B00002A90948FFF7D8F808B1FEF73BF80094B8
:1051C000019469460448FFF727F8002801D0FEF74C
:1051D00031F806B010BD0000F805002010B50C48ED
:1051E0000A4901604FF41651416000218160C1609D
:1051F00001610C2242618161C161FFF735FB00282A
:1052000003D0BDE81040FEF715B810BD00380140CE
:105210004006002010B50E480C4901604FF4614172
:10522000416000218160C16001610C2242618161A5
:10523000C161FFF719FB08B1FDF7FCFFBDE81040A5
:10524000012204490248FFF7B1BB000000440040BE
:10525000880600205700002001B54FF0FF330122DF
:1052600069460248FFF7D6FB08BD0000880600200B
:10527000FEE7000010B500F095F9082309A21821F7
:10528000102000F0DDFC00F055FD4FF47A70FEF7C1
:1052900081FA002401F030FA641CE4B2022CF9D344
:1052A00010BD0000D6C7C4DCC3C5BDFBCFB5CDB3B0
:1052B0000000000010B500F075F9002108230CA2D1
:1052C000084600F0BDFC08230DA21021002000F0CC
:1052D000B7FC08230EA22021002000F0B1FC082317
:1052E0003021BDE810400EA2002000F0A9BC000053
:1052F000D2BBA1A2D0DEB8C4C3DCC2EB0000000068
:10530000B6FEA1A2C2BCC8EBD0C2BFA8000000007C
:10531000C8FDA1A2C9BEB3FDBFA8C6AC0000000075
:10532000CBC4A1A2B9D8CBF80000000010B500F0A2
:1053300039F90021082306A2084600F081FC082361
:105340001021BDE8104006A2002000F079BC00004A
:10535000CEE5A1A2C2BCC8EBD6B8CEC60000000004
:10536000C1F9A1A2C9BEB3FDD6B8CEC600000000E7
:1053700070B50646FEF7DEFB044640F6B83503E09E
:105380000521304600F006F8FEF7D4FB001BA842CA
:10539000F6D370BD70B50C460E26002811D001283A
:1053A0000ED100250F2C00D90F24E8B200F01AF816
:1053B000B6FBF4F0FEF7EEF96D1C6DB2082DF1DBD3
:1053C00070BD07250F2C00D90F24E8B200F00AF8B1
:1053D000B6FBF4F0FEF7DEF96D1E6DB2002DF1DACA
:1053E00070BD00002DE9F0414FF400415C4DCE103E
:1053F0000F115C4C4FF4806808287DD2DFE800F084
:1054000004192E43586D849901222846FEF78BFB20
:10541000002231462846FEF786FB00223946204608
:10542000FEF781FB41462046BDE8F0410022FEF731
:105430007ABB01222846FEF776FB01223146284638
:10544000FEF771FB002239462046FEF76CFB414611
:105450002046BDE8F0410022FEF765BB0022284649
:10546000FEF761FB012231462846FEF75CFB002275
:1054700039462046FEF757FB41462046BDE8F0413D
:105480000022FEF750BB00222846FEF74CFB01220B
:1054900031462846FEF747FB012239462046FEF7F3
:1054A00042FB41462046BDE8F0410022FEF73BBBEF
:1054B00000222846FEF737FB002231462846FEF739
:1054C00032FB012239462046FEF72DFB414620469D
:1054D000BDE8F0410022FEF726BB00222846FEF779
:1054E00022FB002231462846FEF71DFB01223946E9
:1054F0002046FEF718FB00E030E041462046BDE8BC
:10550000F0410122FEF70FBB00222846FEF70BFBFD
:10551000002231462846FEF706FB00223946204687
:10552000FEF701FB41462046BDE8F0410122FEF7AF
:10553000FABA01222846FEF7F6FA0022314628463A
:10554000FEF7F1FA002239462046FEF7ECFA414612
:105550002046BDE8F0410122FEF7E5BABDE8F08142
:1055600000080140000C0140FEE7000070B500207B
:105570000B4900250D54401C0528FBD3084C103C5A
:10558000E560207910B12571002070BDFFF7ECFBBC
:105590006072FFF799FA607A0D28F2D1002070BD91
:1055A0002400002010B50021074C0022002004EB4D
:1055B000C1131A54401CC0B28028FAD3491CC9B286
:1055C0000829F3D310BD0000780000202DE9F04138
:1055D000CF1823E0044686181CE07F2C18D8002939
:1055E00016DB3F2914DCCB1701EB5373DD104FEAB8
:1055F000C51C0C4D23F007036544A1EB030815F807
:1056000004C0012303FA08F32CEA030C05F804C0D4
:10561000641C24B2A642E0DC491C09B28F42D9DCEA
:10562000BDE8F081780000202DE9F04F99B00646E2
:105630000F4693461C4605940025059C6042179032
:1056400001F00CFE0022A94B01F054FD80460BFB3B
:105650000BFB8946584601F001FECDE91510424684
:105660004B4601F04FFE80460598894640438246EE
:1056700001F0F4FDCDE9131042464B4601F03AFD2E
:1056800001F006FD04902298A0B117980FFA80F857
:105690000EE007EB080001B28946304600F028F919
:1056A0004946304600F024F908F101080FFA88F85D
:1056B000A045EEDB38190FFA80F8701900B24146A8
:1056C000129000F015F9381B01B2701B0FFA80F927
:1056D0004846119100F00CF94146484600F008F99F
:1056E000DDE9111000F004F95BE00498B0F5000F5B
:1056F0000BDA032000EB45000AFB00F002F04CF847
:10570000049901F0E7FF049012E0032000EB45004C
:10571000624202210AFB00F001EB42010BFB010097
:1057200002F03AF8049901F0D5FF0490641E24B207
:105730000C9805B22298D0B160420FFA80F8701927
:1057400000B21090701B00B20F900EE007EB080043
:1057500001B28946109800F0CBF849460F9800F046
:10576000C7F808F101080FFA88F8A045EEDB3819F0
:105770000FFA80F8701900B241460E9000F0B8F8A8
:10578000381B0FFA80F9701B00B249460D9000F0EB
:10579000AFF841460D9800F0ABF849460E9800F07E
:1057A000A7F8204601F05AFD0022504B01F0A8FE58
:1057B000DDE9153201F0A6FD8046681C0C90894693
:1057C00000FB0AF001F04AFD42464B4601F05EFD47
:1057D0008BD305990BFB01F0484301F03FFDCDE968
:1057E0000201601E0BFB00F1484301F037FDCDE9DB
:1057F0000001284601F032FD00223C4B01F07AFC0A
:10580000DDE913328046894601F07CFD42464B4675
:1058100001F078FDDDE9002301F06CFCDDE90223F5
:1058200001F06EFE01F034FC81465AE0B9F5000F3C
:1058300013DA022000EB4500624203210AFB00F06C
:1058400001EB42010BFB010001F0A6FF494601F00C
:1058500041FF81466D1C2DB20BE06142032000EB3D
:1058600041000BFB00F001F097FF494601F032FFC9
:105870008146641E24B22298D0B160420FFA80F8AB
:10588000701900B20A90701B00B209900EE007EB8D
:10589000080001B20B910A9800F02AF80B990998B8
:1058A00000F026F808F101080FFA88F8A045EEDBB1
:1058B000381901B2701900B2CDE9070100F018F8EB
:1058C000381B01B2701B0FFA80F84046069100F0B9
:1058D0000FF84046089900F00BF8DDE9061000F0DB
:1058E00007F8002CA2DC19B0BDE8F08F0000E03F03
:1058F00010B57F2812D8002910DB3F290EDCCA170B
:1059000001EB5272D310DC01054B22F00702234455
:105910008A1A1C5C012191400C431C5410BD0000EC
:105920007800002070B505460024802626FA04F091
:10593000284000D0012000F019FA012000F00EFAF2
:10594000002000F00BFA641CE4B2082CEED3012016
:1059500000F004FABDE87040002000F0FFB910B577
:10596000012000F003FA012000F0F8F9002000F017
:10597000FDF9BDE81040002000F0F0B910B500209E
:1059800000F0F4F9012000F0E9F9BDE81040012031
:1059900000F0ECB910B5AE2000F0F0F9D52000F021
:1059A000EDF9802000F0EAF9A82000F0E7F93F20A7
:1059B00000F0E4F9D32000F0E1F9002000F0DEF976
:1059C000402000F0DBF9A12000F0D8F9C82000F059
:1059D000D5F9DA2000F0D2F9122000F0CFF98120B9
:1059E00000F0CCF9CF2000F0C9F9D92000F0C6F9B9
:1059F000F12000F0C3F9DB2000F0C0F9302000F006
:105A0000BDF9A42000F0BAF9A62000F0B7F98D2066
:105A100000F0B4F9142000F0B1F9AF2000F0AEF9B5
:105A2000FFF7C0FDBDE8104000F084B90346012037
:105A300000E05843491E4A1CFBD170470FB470B5B3
:105A4000C0B005460E46144648AA68464799FAF77C
:105A500025FC23466A463146284600F0F1F840B05E
:105A600070BC5DF814FB00002DE9F041CF1823E075
:105A7000044686181CE07F2C18D8002916DB3F2925
:105A800014DCCB1701EB5373DD104FEAC51C0C4D32
:105A900023F007036544A1EB030815F804C00123B4
:105AA00003FA08F38CEA030C05F804C0641C24B262
:105AB000A642E0DC491C09B28F42D9DCBDE8F08186
:105AC0007800002010B50C4640F0B00000F056F908
:105AD000102040EA141000F051F904F00F00BDE866
